{
  "_format": "hh-sol-artifact-1",
  "contractName": "Escrow",
  "sourceName": "contracts/Escrow.sol",
  "abi": [
    {
      "inputs": [
        {
          "internalType": "address",
          "name": "_arbiter",
          "type": "address"
        },
        {
          "internalType": "address",
          "name": "_beneficiary",
          "type": "address"
        }
      ],
      "stateMutability": "payable",
      "type": "constructor"
    },
    {
      "anonymous": false,
      "inputs": [
        {
          "indexed": false,
          "internalType": "uint256",
          "name": "amount",
          "type": "uint256"
        }
      ],
      "name": "Approve",
      "type": "event"
    },
    {
      "inputs": [],
      "name": "approve",
      "outputs": [],
      "stateMutability": "nonpayable",
      "type": "function"
    }
  ],
  "bytecode": "0x608060405260405161058138038061058183398181016040528101906100259190610166565b67016345785d8a000034101561003a57600080fd5b336000806101000a81548173ffffffffffffffffffffffffffffffffffffffff021916908373ffffffffffffffffffffffffffffffffffffffff16021790555081600160006101000a81548173ffffffffffffffffffffffffffffffffffffffff021916908373ffffffffffffffffffffffffffffffffffffffff16021790555080600260006101000a81548173ffffffffffffffffffffffffffffffffffffffff021916908373ffffffffffffffffffffffffffffffffffffffff16021790555050506101a6565b600080fd5b600073ffffffffffffffffffffffffffffffffffffffff82169050919050565b600061013382610108565b9050919050565b61014381610128565b811461014e57600080fd5b50565b6000815190506101608161013a565b92915050565b6000806040838503121561017d5761017c610103565b5b600061018b85828601610151565b925050602061019c85828601610151565b9150509250929050565b6103cc806101b56000396000f3fe608060405234801561001057600080fd5b506004361061002b5760003560e01c806312424e3f14610030575b600080fd5b61003861003a565b005b600160009054906101000a900473ffffffffffffffffffffffffffffffffffffffff1673ffffffffffffffffffffffffffffffffffffffff163373ffffffffffffffffffffffffffffffffffffffff16146100ca576040517f08c379a00000000000000000000000000000000000000000000000000000000081526004016100c19061026a565b60405180910390fd5b600260149054906101000a900460ff161561011a576040517f08c379a0000000000000000000000000000000000000000000000000000000008152600401610111906102fc565b60405180910390fd5b60004790506000600260009054906101000a900473ffffffffffffffffffffffffffffffffffffffff1673ffffffffffffffffffffffffffffffffffffffff16826040516101679061034d565b60006040518083038185875af1925050503d80600081146101a4576040519150601f19603f3d011682016040523d82523d6000602084013e6101a9565b606091505b50509050806101b757600080fd5b6001600260146101000a81548160ff0219169083151502179055507f77b92c0722e5bbe8d1413b7fbec6093bc4dc966a65832498dc8c2c67d9a937cc82604051610201919061037b565b60405180910390a15050565b600082825260208201905092915050565b7f4f6e6c7920617262697465722063616e20617070726f76650000000000000000600082015250565b600061025460188361020d565b915061025f8261021e565b602082019050919050565b6000602082019050818103600083015261028381610247565b9050919050565b7f4f6e6c7920756e617070726f76656420636f6e74726163742063616e2062652060008201527f617070726f766564000000000000000000000000000000000000000000000000602082015250565b60006102e660288361020d565b91506102f18261028a565b604082019050919050565b60006020820190508181036000830152610315816102d9565b9050919050565b600081905092915050565b50565b600061033760008361031c565b915061034282610327565b600082019050919050565b60006103588261032a565b9150819050919050565b6000819050919050565b61037581610362565b82525050565b6000602082019050610390600083018461036c565b9291505056fea2646970667358221220ab3acd7e1de8a570e48a3428dfcd85a4a9f5013b1cc01e065b7237be7e8e00b564736f6c63430008110033",
  "linkReferences": {},
  "deployedLinkReferences": {}
}