{
  "_format": "hh-sol-artifact-1",
  "contractName": "Escrow",
  "sourceName": "contracts/Escrow.sol",
  "abi": [
    {
      "inputs": [
        {
          "internalType": "address",
          "name": "_arbiter",
          "type": "address"
        },
        {
          "internalType": "address",
          "name": "_beneficiary",
          "type": "address"
        },
        {
          "internalType": "string",
          "name": "_product",
          "type": "string"
        }
      ],
      "stateMutability": "payable",
      "type": "constructor"
    },
    {
      "anonymous": false,
      "inputs": [
        {
          "indexed": false,
          "internalType": "uint256",
          "name": "amount",
          "type": "uint256"
        },
        {
          "indexed": false,
          "internalType": "string",
          "name": "product",
          "type": "string"
        }
      ],
      "name": "Approved",
      "type": "event"
    },
    {
      "inputs": [],
      "name": "approve",
      "outputs": [],
      "stateMutability": "nonpayable",
      "type": "function"
    }
  ],
  "bytecode": "0x608060405260405162000bae38038062000bae833981810160405281019062000029919062000314565b67016345785d8a00003410156200003f57600080fd5b336000806101000a81548173ffffffffffffffffffffffffffffffffffffffff021916908373ffffffffffffffffffffffffffffffffffffffff16021790555082600160006101000a81548173ffffffffffffffffffffffffffffffffffffffff021916908373ffffffffffffffffffffffffffffffffffffffff16021790555081600260006101000a81548173ffffffffffffffffffffffffffffffffffffffff021916908373ffffffffffffffffffffffffffffffffffffffff1602179055508060039081620001129190620005da565b50505050620006c1565b6000604051905090565b600080fd5b600080fd5b600073ffffffffffffffffffffffffffffffffffffffff82169050919050565b60006200015d8262000130565b9050919050565b6200016f8162000150565b81146200017b57600080fd5b50565b6000815190506200018f8162000164565b92915050565b600080fd5b600080fd5b6000601f19601f8301169050919050565b7f4e487b7100000000000000000000000000000000000000000000000000000000600052604160045260246000fd5b620001ea826200019f565b810181811067ffffffffffffffff821117156200020c576200020b620001b0565b5b80604052505050565b6000620002216200011c565b90506200022f8282620001df565b919050565b600067ffffffffffffffff821115620002525762000251620001b0565b5b6200025d826200019f565b9050602081019050919050565b60005b838110156200028a5780820151818401526020810190506200026d565b60008484015250505050565b6000620002ad620002a78462000234565b62000215565b905082815260208101848484011115620002cc57620002cb6200019a565b5b620002d98482856200026a565b509392505050565b600082601f830112620002f957620002f862000195565b5b81516200030b84826020860162000296565b91505092915050565b60008060006060848603121562000330576200032f62000126565b5b600062000340868287016200017e565b935050602062000353868287016200017e565b925050604084015167ffffffffffffffff8111156200037757620003766200012b565b5b6200038586828701620002e1565b9150509250925092565b600081519050919050565b7f4e487b7100000000000000000000000000000000000000000000000000000000600052602260045260246000fd5b60006002820490506001821680620003e257607f821691505b602082108103620003f857620003f76200039a565b5b50919050565b60008190508160005260206000209050919050565b60006020601f8301049050919050565b600082821b905092915050565b600060088302620004627fffffffffffffffffffffffffffffffffffffffffffffffffffffffffffffffff8262000423565b6200046e868362000423565b95508019841693508086168417925050509392505050565b6000819050919050565b6000819050919050565b6000620004bb620004b5620004af8462000486565b62000490565b62000486565b9050919050565b6000819050919050565b620004d7836200049a565b620004ef620004e682620004c2565b84845462000430565b825550505050565b600090565b62000506620004f7565b62000513818484620004cc565b505050565b5b818110156200053b576200052f600082620004fc565b60018101905062000519565b5050565b601f8211156200058a576200055481620003fe565b6200055f8462000413565b810160208510156200056f578190505b620005876200057e8562000413565b83018262000518565b50505b505050565b600082821c905092915050565b6000620005af600019846008026200058f565b1980831691505092915050565b6000620005ca83836200059c565b9150826002028217905092915050565b620005e5826200038f565b67ffffffffffffffff811115620006015762000600620001b0565b5b6200060d8254620003c9565b6200061a8282856200053f565b600060209050601f8311600181146200065257600084156200063d578287015190505b620006498582620005bc565b865550620006b9565b601f1984166200066286620003fe565b60005b828110156200068c5784890151825560018201915060208501945060208101905062000665565b86831015620006ac5784890151620006a8601f8916826200059c565b8355505b6001600288020188555050505b505050505050565b6104dd80620006d16000396000f3fe608060405234801561001057600080fd5b506004361061002b5760003560e01c806312424e3f14610030575b600080fd5b61003861003a565b005b600160009054906101000a900473ffffffffffffffffffffffffffffffffffffffff1673ffffffffffffffffffffffffffffffffffffffff163373ffffffffffffffffffffffffffffffffffffffff16146100ca576040517f08c379a00000000000000000000000000000000000000000000000000000000081526004016100c19061026d565b60405180910390fd5b600260149054906101000a900460ff161561011a576040517f08c379a0000000000000000000000000000000000000000000000000000000008152600401610111906102ff565b60405180910390fd5b60004790506000600260009054906101000a900473ffffffffffffffffffffffffffffffffffffffff1673ffffffffffffffffffffffffffffffffffffffff168260405161016790610350565b60006040518083038185875af1925050503d80600081146101a4576040519150601f19603f3d011682016040523d82523d6000602084013e6101a9565b606091505b50509050806101b757600080fd5b6001600260146101000a81548160ff0219169083151502179055507f929f647a26e16327bed0b41d70fd5cacc7891d425d73e826b49ad79174f17720826003604051610204929190610477565b60405180910390a15050565b600082825260208201905092915050565b7f4f6e6c7920617262697465722063616e20617070726f76650000000000000000600082015250565b6000610257601883610210565b915061026282610221565b602082019050919050565b600060208201905081810360008301526102868161024a565b9050919050565b7f4f6e6c7920756e617070726f76656420636f6e74726163742063616e2062652060008201527f617070726f766564000000000000000000000000000000000000000000000000602082015250565b60006102e9602883610210565b91506102f48261028d565b604082019050919050565b60006020820190508181036000830152610318816102dc565b9050919050565b600081905092915050565b50565b600061033a60008361031f565b91506103458261032a565b600082019050919050565b600061035b8261032d565b9150819050919050565b6000819050919050565b61037881610365565b82525050565b7f4e487b7100000000000000000000000000000000000000000000000000000000600052602260045260246000fd5b600060028204905060018216806103c557607f821691505b6020821081036103d8576103d761037e565b5b50919050565b60008190508160005260206000209050919050565b60008154610400816103ad565b61040a8186610210565b94506001821660008114610425576001811461043b5761046e565b60ff19831686528115156020028601935061046e565b610444856103de565b60005b8381101561046657815481890152600182019150602081019050610447565b808801955050505b50505092915050565b600060408201905061048c600083018561036f565b818103602083015261049e81846103f3565b9050939250505056fea2646970667358221220652fa574e75a95a5af87057dca119068ac1a1e6e6d5ade03d68d37d3411c59c864736f6c63430008110033",
  "linkReferences": {},
  "deployedLinkReferences": {}
}