{"contracts/Escrow.sol":{"Escrow":{"abi":[{"inputs":[{"internalType":"address","name":"_arbiter","type":"address"},{"internalType":"address","name":"_beneficiary","type":"address"},{"internalType":"string","name":"_product","type":"string"}],"stateMutability":"payable","type":"constructor"},{"anonymous":false,"inputs":[{"indexed":false,"internalType":"uint256","name":"amount","type":"uint256"},{"indexed":false,"internalType":"string","name":"product","type":"string"}],"name":"Approved","type":"event"},{"inputs":[],"name":"approve","outputs":[],"stateMutability":"nonpayable","type":"function"}],"evm":{"bytecode":{"linkReferences":{},"object":"608060405260405162000bae38038062000bae833981810160405281019062000029919062000314565b67016345785d8a00003410156200003f57600080fd5b336000806101000a81548173ffffffffffffffffffffffffffffffffffffffff021916908373ffffffffffffffffffffffffffffffffffffffff16021790555082600160006101000a81548173ffffffffffffffffffffffffffffffffffffffff021916908373ffffffffffffffffffffffffffffffffffffffff16021790555081600260006101000a81548173ffffffffffffffffffffffffffffffffffffffff021916908373ffffffffffffffffffffffffffffffffffffffff1602179055508060039081620001129190620005da565b50505050620006c1565b6000604051905090565b600080fd5b600080fd5b600073ffffffffffffffffffffffffffffffffffffffff82169050919050565b60006200015d8262000130565b9050919050565b6200016f8162000150565b81146200017b57600080fd5b50565b6000815190506200018f8162000164565b92915050565b600080fd5b600080fd5b6000601f19601f8301169050919050565b7f4e487b7100000000000000000000000000000000000000000000000000000000600052604160045260246000fd5b620001ea826200019f565b810181811067ffffffffffffffff821117156200020c576200020b620001b0565b5b80604052505050565b6000620002216200011c565b90506200022f8282620001df565b919050565b600067ffffffffffffffff821115620002525762000251620001b0565b5b6200025d826200019f565b9050602081019050919050565b60005b838110156200028a5780820151818401526020810190506200026d565b60008484015250505050565b6000620002ad620002a78462000234565b62000215565b905082815260208101848484011115620002cc57620002cb6200019a565b5b620002d98482856200026a565b509392505050565b600082601f830112620002f957620002f862000195565b5b81516200030b84826020860162000296565b91505092915050565b60008060006060848603121562000330576200032f62000126565b5b600062000340868287016200017e565b935050602062000353868287016200017e565b925050604084015167ffffffffffffffff8111156200037757620003766200012b565b5b6200038586828701620002e1565b9150509250925092565b600081519050919050565b7f4e487b7100000000000000000000000000000000000000000000000000000000600052602260045260246000fd5b60006002820490506001821680620003e257607f821691505b602082108103620003f857620003f76200039a565b5b50919050565b60008190508160005260206000209050919050565b60006020601f8301049050919050565b600082821b905092915050565b600060088302620004627fffffffffffffffffffffffffffffffffffffffffffffffffffffffffffffffff8262000423565b6200046e868362000423565b95508019841693508086168417925050509392505050565b6000819050919050565b6000819050919050565b6000620004bb620004b5620004af8462000486565b62000490565b62000486565b9050919050565b6000819050919050565b620004d7836200049a565b620004ef620004e682620004c2565b84845462000430565b825550505050565b600090565b62000506620004f7565b62000513818484620004cc565b505050565b5b818110156200053b576200052f600082620004fc565b60018101905062000519565b5050565b601f8211156200058a576200055481620003fe565b6200055f8462000413565b810160208510156200056f578190505b620005876200057e8562000413565b83018262000518565b50505b505050565b600082821c905092915050565b6000620005af600019846008026200058f565b1980831691505092915050565b6000620005ca83836200059c565b9150826002028217905092915050565b620005e5826200038f565b67ffffffffffffffff811115620006015762000600620001b0565b5b6200060d8254620003c9565b6200061a8282856200053f565b600060209050601f8311600181146200065257600084156200063d578287015190505b620006498582620005bc565b865550620006b9565b601f1984166200066286620003fe565b60005b828110156200068c5784890151825560018201915060208501945060208101905062000665565b86831015620006ac5784890151620006a8601f8916826200059c565b8355505b6001600288020188555050505b505050505050565b6104dd80620006d16000396000f3fe608060405234801561001057600080fd5b506004361061002b5760003560e01c806312424e3f14610030575b600080fd5b61003861003a565b005b600160009054906101000a900473ffffffffffffffffffffffffffffffffffffffff1673ffffffffffffffffffffffffffffffffffffffff163373ffffffffffffffffffffffffffffffffffffffff16146100ca576040517f08c379a00000000000000000000000000000000000000000000000000000000081526004016100c19061026d565b60405180910390fd5b600260149054906101000a900460ff161561011a576040517f08c379a0000000000000000000000000000000000000000000000000000000008152600401610111906102ff565b60405180910390fd5b60004790506000600260009054906101000a900473ffffffffffffffffffffffffffffffffffffffff1673ffffffffffffffffffffffffffffffffffffffff168260405161016790610350565b60006040518083038185875af1925050503d80600081146101a4576040519150601f19603f3d011682016040523d82523d6000602084013e6101a9565b606091505b50509050806101b757600080fd5b6001600260146101000a81548160ff0219169083151502179055507f929f647a26e16327bed0b41d70fd5cacc7891d425d73e826b49ad79174f17720826003604051610204929190610477565b60405180910390a15050565b600082825260208201905092915050565b7f4f6e6c7920617262697465722063616e20617070726f76650000000000000000600082015250565b6000610257601883610210565b915061026282610221565b602082019050919050565b600060208201905081810360008301526102868161024a565b9050919050565b7f4f6e6c7920756e617070726f76656420636f6e74726163742063616e2062652060008201527f617070726f766564000000000000000000000000000000000000000000000000602082015250565b60006102e9602883610210565b91506102f48261028d565b604082019050919050565b60006020820190508181036000830152610318816102dc565b9050919050565b600081905092915050565b50565b600061033a60008361031f565b91506103458261032a565b600082019050919050565b600061035b8261032d565b9150819050919050565b6000819050919050565b61037881610365565b82525050565b7f4e487b7100000000000000000000000000000000000000000000000000000000600052602260045260246000fd5b600060028204905060018216806103c557607f821691505b6020821081036103d8576103d761037e565b5b50919050565b60008190508160005260206000209050919050565b60008154610400816103ad565b61040a8186610210565b94506001821660008114610425576001811461043b5761046e565b60ff19831686528115156020028601935061046e565b610444856103de565b60005b8381101561046657815481890152600182019150602081019050610447565b808801955050505b50505092915050565b600060408201905061048c600083018561036f565b818103602083015261049e81846103f3565b9050939250505056fea2646970667358221220652fa574e75a95a5af87057dca119068ac1a1e6e6d5ade03d68d37d3411c59c864736f6c63430008110033","opcodes":"PUSH1 0x80 PUSH1 0x40 MSTORE PUSH1 0x40 MLOAD PUSH3 0xBAE CODESIZE SUB DUP1 PUSH3 0xBAE DUP4 CODECOPY DUP2 DUP2 ADD PUSH1 0x40 MSTORE DUP2 ADD SWAP1 PUSH3 0x29 SWAP2 SWAP1 PUSH3 0x314 JUMP JUMPDEST PUSH8 0x16345785D8A0000 CALLVALUE LT ISZERO PUSH3 0x3F JUMPI PUSH1 0x0 DUP1 REVERT JUMPDEST CALLER PUSH1 0x0 DUP1 PUSH2 0x100 EXP DUP2 SLOAD DUP2 PUSH20 0xFFFFFFFFFFFFFFFFFFFFFFFFFFFFFFFFFFFFFFFF MUL NOT AND SWAP1 DUP4 PUSH20 0xFFFFFFFFFFFFFFFFFFFFFFFFFFFFFFFFFFFFFFFF AND MUL OR SWAP1 SSTORE POP DUP3 PUSH1 0x1 PUSH1 0x0 PUSH2 0x100 EXP DUP2 SLOAD DUP2 PUSH20 0xFFFFFFFFFFFFFFFFFFFFFFFFFFFFFFFFFFFFFFFF MUL NOT AND SWAP1 DUP4 PUSH20 0xFFFFFFFFFFFFFFFFFFFFFFFFFFFFFFFFFFFFFFFF AND MUL OR SWAP1 SSTORE POP DUP2 PUSH1 0x2 PUSH1 0x0 PUSH2 0x100 EXP DUP2 SLOAD DUP2 PUSH20 0xFFFFFFFFFFFFFFFFFFFFFFFFFFFFFFFFFFFFFFFF MUL NOT AND SWAP1 DUP4 PUSH20 0xFFFFFFFFFFFFFFFFFFFFFFFFFFFFFFFFFFFFFFFF AND MUL OR SWAP1 SSTORE POP DUP1 PUSH1 0x3 SWAP1 DUP2 PUSH3 0x112 SWAP2 SWAP1 PUSH3 0x5DA JUMP JUMPDEST POP POP POP POP PUSH3 0x6C1 JUMP JUMPDEST PUSH1 0x0 PUSH1 0x40 MLOAD SWAP1 POP SWAP1 JUMP JUMPDEST PUSH1 0x0 DUP1 REVERT JUMPDEST PUSH1 0x0 DUP1 REVERT JUMPDEST PUSH1 0x0 PUSH20 0xFFFFFFFFFFFFFFFFFFFFFFFFFFFFFFFFFFFFFFFF DUP3 AND SWAP1 POP SWAP2 SWAP1 POP JUMP JUMPDEST PUSH1 0x0 PUSH3 0x15D DUP3 PUSH3 0x130 JUMP JUMPDEST SWAP1 POP SWAP2 SWAP1 POP JUMP JUMPDEST PUSH3 0x16F DUP2 PUSH3 0x150 JUMP JUMPDEST DUP2 EQ PUSH3 0x17B JUMPI PUSH1 0x0 DUP1 REVERT JUMPDEST POP JUMP JUMPDEST PUSH1 0x0 DUP2 MLOAD SWAP1 POP PUSH3 0x18F DUP2 PUSH3 0x164 JUMP JUMPDEST SWAP3 SWAP2 POP POP JUMP JUMPDEST PUSH1 0x0 DUP1 REVERT JUMPDEST PUSH1 0x0 DUP1 REVERT JUMPDEST PUSH1 0x0 PUSH1 0x1F NOT PUSH1 0x1F DUP4 ADD AND SWAP1 POP SWAP2 SWAP1 POP JUMP JUMPDEST PUSH32 0x4E487B7100000000000000000000000000000000000000000000000000000000 PUSH1 0x0 MSTORE PUSH1 0x41 PUSH1 0x4 MSTORE PUSH1 0x24 PUSH1 0x0 REVERT JUMPDEST PUSH3 0x1EA DUP3 PUSH3 0x19F JUMP JUMPDEST DUP2 ADD DUP2 DUP2 LT PUSH8 0xFFFFFFFFFFFFFFFF DUP3 GT OR ISZERO PUSH3 0x20C JUMPI PUSH3 0x20B PUSH3 0x1B0 JUMP JUMPDEST JUMPDEST DUP1 PUSH1 0x40 MSTORE POP POP POP JUMP JUMPDEST PUSH1 0x0 PUSH3 0x221 PUSH3 0x11C JUMP JUMPDEST SWAP1 POP PUSH3 0x22F DUP3 DUP3 PUSH3 0x1DF JUMP JUMPDEST SWAP2 SWAP1 POP JUMP JUMPDEST PUSH1 0x0 PUSH8 0xFFFFFFFFFFFFFFFF DUP3 GT ISZERO PUSH3 0x252 JUMPI PUSH3 0x251 PUSH3 0x1B0 JUMP JUMPDEST JUMPDEST PUSH3 0x25D DUP3 PUSH3 0x19F JUMP JUMPDEST SWAP1 POP PUSH1 0x20 DUP2 ADD SWAP1 POP SWAP2 SWAP1 POP JUMP JUMPDEST PUSH1 0x0 JUMPDEST DUP4 DUP2 LT ISZERO PUSH3 0x28A JUMPI DUP1 DUP3 ADD MLOAD DUP2 DUP5 ADD MSTORE PUSH1 0x20 DUP2 ADD SWAP1 POP PUSH3 0x26D JUMP JUMPDEST PUSH1 0x0 DUP5 DUP5 ADD MSTORE POP POP POP POP JUMP JUMPDEST PUSH1 0x0 PUSH3 0x2AD PUSH3 0x2A7 DUP5 PUSH3 0x234 JUMP JUMPDEST PUSH3 0x215 JUMP JUMPDEST SWAP1 POP DUP3 DUP2 MSTORE PUSH1 0x20 DUP2 ADD DUP5 DUP5 DUP5 ADD GT ISZERO PUSH3 0x2CC JUMPI PUSH3 0x2CB PUSH3 0x19A JUMP JUMPDEST JUMPDEST PUSH3 0x2D9 DUP5 DUP3 DUP6 PUSH3 0x26A JUMP JUMPDEST POP SWAP4 SWAP3 POP POP POP JUMP JUMPDEST PUSH1 0x0 DUP3 PUSH1 0x1F DUP4 ADD SLT PUSH3 0x2F9 JUMPI PUSH3 0x2F8 PUSH3 0x195 JUMP JUMPDEST JUMPDEST DUP2 MLOAD PUSH3 0x30B DUP5 DUP3 PUSH1 0x20 DUP7 ADD PUSH3 0x296 JUMP JUMPDEST SWAP2 POP POP SWAP3 SWAP2 POP POP JUMP JUMPDEST PUSH1 0x0 DUP1 PUSH1 0x0 PUSH1 0x60 DUP5 DUP7 SUB SLT ISZERO PUSH3 0x330 JUMPI PUSH3 0x32F PUSH3 0x126 JUMP JUMPDEST JUMPDEST PUSH1 0x0 PUSH3 0x340 DUP7 DUP3 DUP8 ADD PUSH3 0x17E JUMP JUMPDEST SWAP4 POP POP PUSH1 0x20 PUSH3 0x353 DUP7 DUP3 DUP8 ADD PUSH3 0x17E JUMP JUMPDEST SWAP3 POP POP PUSH1 0x40 DUP5 ADD MLOAD PUSH8 0xFFFFFFFFFFFFFFFF DUP2 GT ISZERO PUSH3 0x377 JUMPI PUSH3 0x376 PUSH3 0x12B JUMP JUMPDEST JUMPDEST PUSH3 0x385 DUP7 DUP3 DUP8 ADD PUSH3 0x2E1 JUMP JUMPDEST SWAP2 POP POP SWAP3 POP SWAP3 POP SWAP3 JUMP JUMPDEST PUSH1 0x0 DUP2 MLOAD SWAP1 POP SWAP2 SWAP1 POP JUMP JUMPDEST PUSH32 0x4E487B7100000000000000000000000000000000000000000000000000000000 PUSH1 0x0 MSTORE PUSH1 0x22 PUSH1 0x4 MSTORE PUSH1 0x24 PUSH1 0x0 REVERT JUMPDEST PUSH1 0x0 PUSH1 0x2 DUP3 DIV SWAP1 POP PUSH1 0x1 DUP3 AND DUP1 PUSH3 0x3E2 JUMPI PUSH1 0x7F DUP3 AND SWAP2 POP JUMPDEST PUSH1 0x20 DUP3 LT DUP2 SUB PUSH3 0x3F8 JUMPI PUSH3 0x3F7 PUSH3 0x39A JUMP JUMPDEST JUMPDEST POP SWAP2 SWAP1 POP JUMP JUMPDEST PUSH1 0x0 DUP2 SWAP1 POP DUP2 PUSH1 0x0 MSTORE PUSH1 0x20 PUSH1 0x0 KECCAK256 SWAP1 POP SWAP2 SWAP1 POP JUMP JUMPDEST PUSH1 0x0 PUSH1 0x20 PUSH1 0x1F DUP4 ADD DIV SWAP1 POP SWAP2 SWAP1 POP JUMP JUMPDEST PUSH1 0x0 DUP3 DUP3 SHL SWAP1 POP SWAP3 SWAP2 POP POP JUMP JUMPDEST PUSH1 0x0 PUSH1 0x8 DUP4 MUL PUSH3 0x462 PUSH32 0xFFFFFFFFFFFFFFFFFFFFFFFFFFFFFFFFFFFFFFFFFFFFFFFFFFFFFFFFFFFFFFFF DUP3 PUSH3 0x423 JUMP JUMPDEST PUSH3 0x46E DUP7 DUP4 PUSH3 0x423 JUMP JUMPDEST SWAP6 POP DUP1 NOT DUP5 AND SWAP4 POP DUP1 DUP7 AND DUP5 OR SWAP3 POP POP POP SWAP4 SWAP3 POP POP POP JUMP JUMPDEST PUSH1 0x0 DUP2 SWAP1 POP SWAP2 SWAP1 POP JUMP JUMPDEST PUSH1 0x0 DUP2 SWAP1 POP SWAP2 SWAP1 POP JUMP JUMPDEST PUSH1 0x0 PUSH3 0x4BB PUSH3 0x4B5 PUSH3 0x4AF DUP5 PUSH3 0x486 JUMP JUMPDEST PUSH3 0x490 JUMP JUMPDEST PUSH3 0x486 JUMP JUMPDEST SWAP1 POP SWAP2 SWAP1 POP JUMP JUMPDEST PUSH1 0x0 DUP2 SWAP1 POP SWAP2 SWAP1 POP JUMP JUMPDEST PUSH3 0x4D7 DUP4 PUSH3 0x49A JUMP JUMPDEST PUSH3 0x4EF PUSH3 0x4E6 DUP3 PUSH3 0x4C2 JUMP JUMPDEST DUP5 DUP5 SLOAD PUSH3 0x430 JUMP JUMPDEST DUP3 SSTORE POP POP POP POP JUMP JUMPDEST PUSH1 0x0 SWAP1 JUMP JUMPDEST PUSH3 0x506 PUSH3 0x4F7 JUMP JUMPDEST PUSH3 0x513 DUP2 DUP5 DUP5 PUSH3 0x4CC JUMP JUMPDEST POP POP POP JUMP JUMPDEST JUMPDEST DUP2 DUP2 LT ISZERO PUSH3 0x53B JUMPI PUSH3 0x52F PUSH1 0x0 DUP3 PUSH3 0x4FC JUMP JUMPDEST PUSH1 0x1 DUP2 ADD SWAP1 POP PUSH3 0x519 JUMP JUMPDEST POP POP JUMP JUMPDEST PUSH1 0x1F DUP3 GT ISZERO PUSH3 0x58A JUMPI PUSH3 0x554 DUP2 PUSH3 0x3FE JUMP JUMPDEST PUSH3 0x55F DUP5 PUSH3 0x413 JUMP JUMPDEST DUP2 ADD PUSH1 0x20 DUP6 LT ISZERO PUSH3 0x56F JUMPI DUP2 SWAP1 POP JUMPDEST PUSH3 0x587 PUSH3 0x57E DUP6 PUSH3 0x413 JUMP JUMPDEST DUP4 ADD DUP3 PUSH3 0x518 JUMP JUMPDEST POP POP JUMPDEST POP POP POP JUMP JUMPDEST PUSH1 0x0 DUP3 DUP3 SHR SWAP1 POP SWAP3 SWAP2 POP POP JUMP JUMPDEST PUSH1 0x0 PUSH3 0x5AF PUSH1 0x0 NOT DUP5 PUSH1 0x8 MUL PUSH3 0x58F JUMP JUMPDEST NOT DUP1 DUP4 AND SWAP2 POP POP SWAP3 SWAP2 POP POP JUMP JUMPDEST PUSH1 0x0 PUSH3 0x5CA DUP4 DUP4 PUSH3 0x59C JUMP JUMPDEST SWAP2 POP DUP3 PUSH1 0x2 MUL DUP3 OR SWAP1 POP SWAP3 SWAP2 POP POP JUMP JUMPDEST PUSH3 0x5E5 DUP3 PUSH3 0x38F JUMP JUMPDEST PUSH8 0xFFFFFFFFFFFFFFFF DUP2 GT ISZERO PUSH3 0x601 JUMPI PUSH3 0x600 PUSH3 0x1B0 JUMP JUMPDEST JUMPDEST PUSH3 0x60D DUP3 SLOAD PUSH3 0x3C9 JUMP JUMPDEST PUSH3 0x61A DUP3 DUP3 DUP6 PUSH3 0x53F JUMP JUMPDEST PUSH1 0x0 PUSH1 0x20 SWAP1 POP PUSH1 0x1F DUP4 GT PUSH1 0x1 DUP2 EQ PUSH3 0x652 JUMPI PUSH1 0x0 DUP5 ISZERO PUSH3 0x63D JUMPI DUP3 DUP8 ADD MLOAD SWAP1 POP JUMPDEST PUSH3 0x649 DUP6 DUP3 PUSH3 0x5BC JUMP JUMPDEST DUP7 SSTORE POP PUSH3 0x6B9 JUMP JUMPDEST PUSH1 0x1F NOT DUP5 AND PUSH3 0x662 DUP7 PUSH3 0x3FE JUMP JUMPDEST PUSH1 0x0 JUMPDEST DUP3 DUP2 LT ISZERO PUSH3 0x68C JUMPI DUP5 DUP10 ADD MLOAD DUP3 SSTORE PUSH1 0x1 DUP3 ADD SWAP2 POP PUSH1 0x20 DUP6 ADD SWAP5 POP PUSH1 0x20 DUP2 ADD SWAP1 POP PUSH3 0x665 JUMP JUMPDEST DUP7 DUP4 LT ISZERO PUSH3 0x6AC JUMPI DUP5 DUP10 ADD MLOAD PUSH3 0x6A8 PUSH1 0x1F DUP10 AND DUP3 PUSH3 0x59C JUMP JUMPDEST DUP4 SSTORE POP JUMPDEST PUSH1 0x1 PUSH1 0x2 DUP9 MUL ADD DUP9 SSTORE POP POP POP JUMPDEST POP POP POP POP POP POP JUMP JUMPDEST PUSH2 0x4DD DUP1 PUSH3 0x6D1 PUSH1 0x0 CODECOPY PUSH1 0x0 RETURN INVALID PUSH1 0x80 PUSH1 0x40 MSTORE CALLVALUE DUP1 ISZERO PUSH2 0x10 JUMPI PUSH1 0x0 DUP1 REVERT JUMPDEST POP PUSH1 0x4 CALLDATASIZE LT PUSH2 0x2B JUMPI PUSH1 0x0 CALLDATALOAD PUSH1 0xE0 SHR DUP1 PUSH4 0x12424E3F EQ PUSH2 0x30 JUMPI JUMPDEST PUSH1 0x0 DUP1 REVERT JUMPDEST PUSH2 0x38 PUSH2 0x3A JUMP JUMPDEST STOP JUMPDEST PUSH1 0x1 PUSH1 0x0 SWAP1 SLOAD SWAP1 PUSH2 0x100 EXP SWAP1 DIV PUSH20 0xFFFFFFFFFFFFFFFFFFFFFFFFFFFFFFFFFFFFFFFF AND PUSH20 0xFFFFFFFFFFFFFFFFFFFFFFFFFFFFFFFFFFFFFFFF AND CALLER PUSH20 0xFFFFFFFFFFFFFFFFFFFFFFFFFFFFFFFFFFFFFFFF AND EQ PUSH2 0xCA JUMPI PUSH1 0x40 MLOAD PUSH32 0x8C379A000000000000000000000000000000000000000000000000000000000 DUP2 MSTORE PUSH1 0x4 ADD PUSH2 0xC1 SWAP1 PUSH2 0x26D JUMP JUMPDEST PUSH1 0x40 MLOAD DUP1 SWAP2 SUB SWAP1 REVERT JUMPDEST PUSH1 0x2 PUSH1 0x14 SWAP1 SLOAD SWAP1 PUSH2 0x100 EXP SWAP1 DIV PUSH1 0xFF AND ISZERO PUSH2 0x11A JUMPI PUSH1 0x40 MLOAD PUSH32 0x8C379A000000000000000000000000000000000000000000000000000000000 DUP2 MSTORE PUSH1 0x4 ADD PUSH2 0x111 SWAP1 PUSH2 0x2FF JUMP JUMPDEST PUSH1 0x40 MLOAD DUP1 SWAP2 SUB SWAP1 REVERT JUMPDEST PUSH1 0x0 SELFBALANCE SWAP1 POP PUSH1 0x0 PUSH1 0x2 PUSH1 0x0 SWAP1 SLOAD SWAP1 PUSH2 0x100 EXP SWAP1 DIV PUSH20 0xFFFFFFFFFFFFFFFFFFFFFFFFFFFFFFFFFFFFFFFF AND PUSH20 0xFFFFFFFFFFFFFFFFFFFFFFFFFFFFFFFFFFFFFFFF AND DUP3 PUSH1 0x40 MLOAD PUSH2 0x167 SWAP1 PUSH2 0x350 JUMP JUMPDEST PUSH1 0x0 PUSH1 0x40 MLOAD DUP1 DUP4 SUB DUP2 DUP6 DUP8 GAS CALL SWAP3 POP POP POP RETURNDATASIZE DUP1 PUSH1 0x0 DUP2 EQ PUSH2 0x1A4 JUMPI PUSH1 0x40 MLOAD SWAP2 POP PUSH1 0x1F NOT PUSH1 0x3F RETURNDATASIZE ADD AND DUP3 ADD PUSH1 0x40 MSTORE RETURNDATASIZE DUP3 MSTORE RETURNDATASIZE PUSH1 0x0 PUSH1 0x20 DUP5 ADD RETURNDATACOPY PUSH2 0x1A9 JUMP JUMPDEST PUSH1 0x60 SWAP2 POP JUMPDEST POP POP SWAP1 POP DUP1 PUSH2 0x1B7 JUMPI PUSH1 0x0 DUP1 REVERT JUMPDEST PUSH1 0x1 PUSH1 0x2 PUSH1 0x14 PUSH2 0x100 EXP DUP2 SLOAD DUP2 PUSH1 0xFF MUL NOT AND SWAP1 DUP4 ISZERO ISZERO MUL OR SWAP1 SSTORE POP PUSH32 0x929F647A26E16327BED0B41D70FD5CACC7891D425D73E826B49AD79174F17720 DUP3 PUSH1 0x3 PUSH1 0x40 MLOAD PUSH2 0x204 SWAP3 SWAP2 SWAP1 PUSH2 0x477 JUMP JUMPDEST PUSH1 0x40 MLOAD DUP1 SWAP2 SUB SWAP1 LOG1 POP POP JUMP JUMPDEST PUSH1 0x0 DUP3 DUP3 MSTORE PUSH1 0x20 DUP3 ADD SWAP1 POP SWAP3 SWAP2 POP POP JUMP JUMPDEST PUSH32 0x4F6E6C7920617262697465722063616E20617070726F76650000000000000000 PUSH1 0x0 DUP3 ADD MSTORE POP JUMP JUMPDEST PUSH1 0x0 PUSH2 0x257 PUSH1 0x18 DUP4 PUSH2 0x210 JUMP JUMPDEST SWAP2 POP PUSH2 0x262 DUP3 PUSH2 0x221 JUMP JUMPDEST PUSH1 0x20 DUP3 ADD SWAP1 POP SWAP2 SWAP1 POP JUMP JUMPDEST PUSH1 0x0 PUSH1 0x20 DUP3 ADD SWAP1 POP DUP2 DUP2 SUB PUSH1 0x0 DUP4 ADD MSTORE PUSH2 0x286 DUP2 PUSH2 0x24A JUMP JUMPDEST SWAP1 POP SWAP2 SWAP1 POP JUMP JUMPDEST PUSH32 0x4F6E6C7920756E617070726F76656420636F6E74726163742063616E20626520 PUSH1 0x0 DUP3 ADD MSTORE PUSH32 0x617070726F766564000000000000000000000000000000000000000000000000 PUSH1 0x20 DUP3 ADD MSTORE POP JUMP JUMPDEST PUSH1 0x0 PUSH2 0x2E9 PUSH1 0x28 DUP4 PUSH2 0x210 JUMP JUMPDEST SWAP2 POP PUSH2 0x2F4 DUP3 PUSH2 0x28D JUMP JUMPDEST PUSH1 0x40 DUP3 ADD SWAP1 POP SWAP2 SWAP1 POP JUMP JUMPDEST PUSH1 0x0 PUSH1 0x20 DUP3 ADD SWAP1 POP DUP2 DUP2 SUB PUSH1 0x0 DUP4 ADD MSTORE PUSH2 0x318 DUP2 PUSH2 0x2DC JUMP JUMPDEST SWAP1 POP SWAP2 SWAP1 POP JUMP JUMPDEST PUSH1 0x0 DUP2 SWAP1 POP SWAP3 SWAP2 POP POP JUMP JUMPDEST POP JUMP JUMPDEST PUSH1 0x0 PUSH2 0x33A PUSH1 0x0 DUP4 PUSH2 0x31F JUMP JUMPDEST SWAP2 POP PUSH2 0x345 DUP3 PUSH2 0x32A JUMP JUMPDEST PUSH1 0x0 DUP3 ADD SWAP1 POP SWAP2 SWAP1 POP JUMP JUMPDEST PUSH1 0x0 PUSH2 0x35B DUP3 PUSH2 0x32D JUMP JUMPDEST SWAP2 POP DUP2 SWAP1 POP SWAP2 SWAP1 POP JUMP JUMPDEST PUSH1 0x0 DUP2 SWAP1 POP SWAP2 SWAP1 POP JUMP JUMPDEST PUSH2 0x378 DUP2 PUSH2 0x365 JUMP JUMPDEST DUP3 MSTORE POP POP JUMP JUMPDEST PUSH32 0x4E487B7100000000000000000000000000000000000000000000000000000000 PUSH1 0x0 MSTORE PUSH1 0x22 PUSH1 0x4 MSTORE PUSH1 0x24 PUSH1 0x0 REVERT JUMPDEST PUSH1 0x0 PUSH1 0x2 DUP3 DIV SWAP1 POP PUSH1 0x1 DUP3 AND DUP1 PUSH2 0x3C5 JUMPI PUSH1 0x7F DUP3 AND SWAP2 POP JUMPDEST PUSH1 0x20 DUP3 LT DUP2 SUB PUSH2 0x3D8 JUMPI PUSH2 0x3D7 PUSH2 0x37E JUMP JUMPDEST JUMPDEST POP SWAP2 SWAP1 POP JUMP JUMPDEST PUSH1 0x0 DUP2 SWAP1 POP DUP2 PUSH1 0x0 MSTORE PUSH1 0x20 PUSH1 0x0 KECCAK256 SWAP1 POP SWAP2 SWAP1 POP JUMP JUMPDEST PUSH1 0x0 DUP2 SLOAD PUSH2 0x400 DUP2 PUSH2 0x3AD JUMP JUMPDEST PUSH2 0x40A DUP2 DUP7 PUSH2 0x210 JUMP JUMPDEST SWAP5 POP PUSH1 0x1 DUP3 AND PUSH1 0x0 DUP2 EQ PUSH2 0x425 JUMPI PUSH1 0x1 DUP2 EQ PUSH2 0x43B JUMPI PUSH2 0x46E JUMP JUMPDEST PUSH1 0xFF NOT DUP4 AND DUP7 MSTORE DUP2 ISZERO ISZERO PUSH1 0x20 MUL DUP7 ADD SWAP4 POP PUSH2 0x46E JUMP JUMPDEST PUSH2 0x444 DUP6 PUSH2 0x3DE JUMP JUMPDEST PUSH1 0x0 JUMPDEST DUP4 DUP2 LT ISZERO PUSH2 0x466 JUMPI DUP2 SLOAD DUP2 DUP10 ADD MSTORE PUSH1 0x1 DUP3 ADD SWAP2 POP PUSH1 0x20 DUP2 ADD SWAP1 POP PUSH2 0x447 JUMP JUMPDEST DUP1 DUP9 ADD SWAP6 POP POP POP JUMPDEST POP POP POP SWAP3 SWAP2 POP POP JUMP JUMPDEST PUSH1 0x0 PUSH1 0x40 DUP3 ADD SWAP1 POP PUSH2 0x48C PUSH1 0x0 DUP4 ADD DUP6 PUSH2 0x36F JUMP JUMPDEST DUP2 DUP2 SUB PUSH1 0x20 DUP4 ADD MSTORE PUSH2 0x49E DUP2 DUP5 PUSH2 0x3F3 JUMP JUMPDEST SWAP1 POP SWAP4 SWAP3 POP POP POP JUMP INVALID LOG2 PUSH5 0x6970667358 0x22 SLT KECCAK256 PUSH6 0x2FA574E75A95 0xA5 0xAF DUP8 SDIV PUSH30 0xCA119068AC1A1E6E6D5ADE03D68D37D3411C59C864736F6C634300081100 CALLER "},"methodIdentifiers":{"approve()":"12424e3f"}}}}}